:1000000096C00000AFC00000ADC00000ABC0000053
:10001000A9C00000A7C00000A5C00000A3C0000048
:10002000A1C000009FC000009DC0000006C50000E8
:1000300099C0000097C0000095C0000093C0000068
:1000400091C000008FC000008DC000008BC0000078
:1000500089C0000087C0000085C000008DC100007D
:1000600081C000007FC000007DC000007BC0000098
:1000700079C000001A036100720064007500690015
:100080006E006F005F006D00690064006900000091
:100090002003680069006400750069006E006F004D
:1000A0002000700072006F006A0065006300740039
:1000B00000000403090409026500020100C03209BE
:1000C00004000000010100000924010001090001F1
:1000D000010904010002010300000724010001419D
:1000E0000006240201010006240202020009240382
:1000F00001030102010009240302040101010009B6
:1001000005020240000500000525010101090581E5
:100110000240000500000525010103120110010045
:10012000000008EB03482001000102000100112437
:100130001FBECFEFD2E0DEBFCDBF11E0A0E0B1E047
:10014000E2E6FEE002C005900D92A030B107D9F7BB
:1001500021E0A0E0B1E001C01D92AD31B207E1F7AE
:10016000CAD07DC64DCF84B7877F84BF88E10FB6E4
:10017000F89480936000109260000FBE8FE190E0D1
:100180009093CD008093CC0086E08093CA001092BB
:10019000C800E9ECF0E088E18083539A5A9A84E041
:1001A00085BD108288E98083469A3E9A90E080E877
:1001B0000FB6F89480936100909361000FBE8AB1EE
:1001C000806F8AB98BB18F708BB928D45C985D9899
:1001D00008958BB18F70806A8BB908958BB18F7041
:1001E00080618BB90895CF9342E361E881E057D3F2
:1001F000C82F42E360E882E052D3882321F0CC2369
:1002000011F090E601C090E98BB18F70892B8BB90A
:10021000CF91089580911401843041F581E080935D
:10022000E9008091E80080FF21C0809108018823C7
:10023000E9F01092080140E050E064E070E084E0F2
:1002400091E0D6D11092040110920501109206019E
:10025000109207018091E8008E778093E8005D9806
:1002600088E893E190930301809302010895CF936E
:10027000DF9300D000D0CDB7DEB780911401843079
:1002800099F582E08093E9008091E80082FF2CC01C
:1002900040E050E064E070E0CE010196F1D18A8147
:1002A0009091C80095FFFCCF8093CE008B819091F8
:1002B000C80095FFFCCF8093CE008C819091C80040
:1002C00095FFFCCF8093CE005C9888E893E19093F3
:1002D0000101809300018091F200811105C080919D
:1002E000E8008B778093E8000F900F900F900F90AD
:1002F000DF91CF91089537DF78947894809102014F
:1003000090910301009731F001979093030180933E
:10031000020101C05D9A8091000190910101009756
:1003200031F00197909301018093000101C05C9A24
:100330009EDF70DF78D5E2CF87FF0CC09CE0980F7E
:10034000923040F0982F9B7F993F21F0803F18F426
:10035000807F089580E00895982F9F7E282F2F7C1E
:10036000203839F0803E29F081E0903C19F080E09F
:1003700001C081E0817008951F920F920FB60F9215
:1003800011242F933F934F935F936F937F938F939A
:100390009F93AF93BF93CF93DF93EF93FF9380919E
:1003A0001401843009F0DFC0C091CE0040910B01F0
:1003B000411178C0C0930D01D0910A018D2FBCDF8F
:1003C000CBDF882349F0C7FD07C0D0930D01C09350
:1003D0000E0181E080930B01C0910D018C2FACDFE9
:1003E000813F91F188F4803B89F138F4803971F1D3
:1003F000803A61F1803869F529C0803D29F1803E5D
:1004000029F1803C31F520C0883F69F030F4833F0A
:10041000D9F0E0F0863F39F01CC08A3FD0F08D3F24
:1004200010F08E3FB0F08FE080930401C09305017F
:10043000109206011092070181E08093080110924A
:100440000B01109209018FC092E001C093E09093DC
:10045000090190910B0160910901492F50E0262F6D
:1004600030E02150310942175307C4F082958F7054
:1004700080930401C093050180910E0180930601D1
:10048000633029F480910F018093070102C010921C
:10049000070110920B01109209011BC09F5F9093FE
:1004A0000B0161C0C7FF19C0CD3F28F4CA3F28F433
:1004B000C83F99F402C0CE3F80F08C2F3DDF82957B
:1004C0008F7080930401C093050110920601109271
:1004D000070181E08093080146C0242F30E0F90134
:1004E000E35FFE4FC083D09109018D2F90E001970B
:1004F00028173907ACF1C0910D018C2F1DDF982F03
:1005000092959F7090930401C093050190910E0104
:1005100090930601D33029F490910F019093070135
:1005200002C01092070110920B011092090191E094
:1005300090930801803B71F038F4803959F0803A8B
:1005400049F0803851F406C0803D21F0803E11F022
:10055000803C19F4C0930A0106C010920A0103C03E
:100560004F5F40930B01FF91EF91DF91CF91BF91CE
:10057000AF919F918F917F916F915F914F913F913B
:100580002F910F900FBE0F901F901895292F332792
:100590002230310559F02330310569F02130310521
:1005A000F9F482E190E02BE131E01EC085E690E0B5
:1005B00026EB30E019C099278130910541F0823057
:1005C000910541F0892B61F4E2EBF0E005C0E0E930
:1005D000F0E002C0E4E7F0E0849190E09F0104C005
:1005E00080E090E020E030E0FA013183208308953C
:1005F000CF92DF92EF92FF920F931F93CF93DF93EF
:100600007C018B01EA01A1D1811131C0209731F029
:1006100088819981081B190BE80EF91EC12CD12C79
:100620000115110519F18091E80085FD14C0809134
:10063000E8008E778093E800F6D3209741F0888118
:1006400099818C0D9D1D9983888385E010C07DD193
:10065000882331F30CC0F70181917F018093F10071
:1006600001501109FFEFCF1ADF0ADACF80E0DF91E6
:10067000CF911F910F91FF90EF90DF90CF90089551
:10068000CF92DF92EF92FF920F931F93CF93DF935E
:100690007C018B01EA0159D1811131C0209731F0E1
:1006A00088819981081B190BE80EF91EC12CD12CE9
:1006B0000115110519F18091E80085FD14C08091A4
:1006C000E8008B778093E800AED3209741F08881D3
:1006D00099818C0D9D1D9983888385E010C035D14B
:1006E000882331F30CC08091F100F70181937F01E1
:1006F00001501109FFEFCF1ADF0ADACF80E0DF9156
:10070000CF911F910F91FF90EF90DF90CF900895C0
:1007100020911B0130911C012617370748F0611505
:10072000710539F42091E8002E772093E80001C08C
:10073000B90120E061157105D1F130911401332325
:1007400009F443C0353009F442C03091E80033FD6C
:1007500040C03091E80032FF06C08091E80082FF7F
:1007600029C080E008953091E80030FFE3CF209168
:10077000F20030E0FC01281B390BCF01820F931FE0
:100780006115710549F08830910530F481918093AD
:10079000F10061507109F1CF21E0089709F020E0E4
:1007A0008091E8008E778093E800CF01C3CF2111BC
:1007B000C4CFD3CF80911401882339F0853039F02C
:1007C0008091E80083FFC9CF04C082E0089583E0F0
:1007D000089581E0089520911B0130911C01261796
:1007E000370748F06115710539F42091E8002E773C
:1007F0002093E80001C0B90120E061157105D9F12D
:1008000030911401332309F444C0353009F443C056
:100810003091E80033FD41C03091E80032FF06C05E
:100820008091E80082FF2AC080E008953091E800BE
:1008300030FFE3CF2091F20030E0FC01281B390BA0
:10084000C9018E0F9F1F6115710551F08830910508
:1008500038F484918093F100319661507109F0CFA2
:1008600021E0089709F020E08091E8008E778093DE
:10087000E800CF01C2CF2111C3CFD2CF80911401A4
:10088000882339F0853039F08091E80083FFC8CFA4
:1008900004C082E0089583E0089581E00895982FD0
:1008A000953058F59093E900981739F07091EC0065
:1008B0002091ED005091F00003C0242F762F50E0DE
:1008C00021FF19C03091EB003E7F3093EB00309157
:1008D000ED003D7F3093ED003091EB0031603093BF
:1008E000EB007093EC002093ED005093F00020910A
:1008F000EE0027FF07C09F5FD3CF8F708093E90082
:1009000081E0089580E008958091150187FD05C07C
:100910008091E80080FF0EC012C08091E80082FD47
:1009200005C0809114018111F8CF08958091E800ED
:100930008B7708C0809114018111EACF08958091CE
:10094000E8008E778093E80008958091E40090910C
:10095000E50045E62091EC0020FF21C02091E80051
:1009600020FD21C020911401222389F0253089F037
:100970002091EB0025FD0FC02091E4003091E500AF
:100980002817390739F3415041F0C901E3CF82E01C
:10099000089583E0089581E0089584E0089520910A
:1009A000E80022FFDFCF80E0089541D043D080915E
:1009B000D8008F778093D8008091D800806880938A
:1009C000D8008091D8008F7D8093D80084E089BDC5
:1009D00086E089BD09B400FEFDCF1092140110928B
:1009E0001001109212011092110142E060E080E0CB
:1009F00056DF8091E1008E7F8093E1008091E200DC
:100A000081608093E2008091E20088608093E20040
:100A10008091E0008E7F8093E0000895E3E6F0E0AF
:100A200080818E7F808381E080931301BECF1092FE
:100A3000E20008951092E10008951F920F920FB600
:100A40000F9211242F933F934F935F936F937F9354
:100A50008F939F93AF93BF93EF93FF938091E100A8
:100A600082FF0AC08091E20082FF06C08091E1000F
:100A70008B7F8093E100D6D18091E10080FF17C089
:100A80008091E20080FF13C08091E2008E7F80930E
:100A9000E2008091E20080618093E2008091D800C2
:100AA00080628093D80019BC1092140197DB80916A
:100AB000E10084FF2FC08091E20084FF2BC084E01E
:100AC00089BD86E089BD09B400FEFDCF8091D800C4
:100AD0008F7D8093D8008091E1008F7E8093E1002C
:100AE0008091E2008F7E8093E2008091E20081603D
:100AF0008093E20080911001882311F084E007C008
:100B00008091E30087FF02C083E001C081E0809311
:100B100014015FDB8091E10083FF22C08091E2003D
:100B200083FF1EC08091E100877F8093E10082E017
:100B300080931401109210018091E1008E7F8093C8
:100B4000E1008091E2008E7F8093E2008091E200DC
:100B500080618093E20042E060E080E0A0DE62D14C
:100B6000FF91EF91BF91AF919F918F917F916F9185
:100B70005F914F913F912F910F900FBE0F901F905B
:100B800018951F93CF93DF93CDB7DEB7AA970FB613
:100B9000F894DEBF0FBECDBFE5E1F1E08091F1003A
:100BA000819321E0ED31F207C9F73CD18091E80053
:100BB00083FF20C19091150180911601853009F4C1
:100BC00077C030F4813081F168F0833069F112C16F
:100BD000883009F4E1C0893009F4F0C0863009F0AA
:100BE00009C188C0903881F0923809F003C1809122
:100BF00019018F708093E9008091EB0085FB8827B5
:100C000080F91092E90006C08091110190911201C3
:100C1000911182609091E800977F9093E800809313
:100C2000F1001092F100C3C0292F2D7F09F0E2C01E
:100C3000992319F0923061F0DDC090911701913045
:100C400009F0D8C0833009F090E0909312012AC0D7
:100C500090911701911126C0209119012F7009F46C
:100C6000C9C02093E9009091EB0090FF1BC0833036
:100C700021F48091EB00806213C08091EB008061D1
:100C80008093EB0081E090E0022E01C0880F0A946F
:100C9000EAF78093EA001092EA008091EB00886006
:100CA0008093EB001092E9008091E800877F82C07A
:100CB0009111A0C0109117011F778091E3008078F7
:100CC000812B8093E3008091E800877F8093E80088
:100CD0001BDE8091E80080FFFCCF8091E3008068FC
:100CE0008093E300112311F083E001C082E0809340
:100CF000140180C09058923008F07CC08091170198
:100D0000909118018C3D23E0920771F583E08A836E
:100D10008AE289834FB7F894DE01139620E03EE023
:100D200051E2E32FF0E050935700E49120FF03C01D
:100D3000E295EF703F5FEF708E2F90E0EA3010F099
:100D4000C79601C0C0968D939D932F5F243149F7BC
:100D50004FBF8091E800877F8093E8006AE270E0EF
:100D6000CE010196D5DC12C0AE014F5F5F4F60919E
:100D700019010CDC009709F43DC02091E800277FA1
:100D80002093E800BC0189819A8125DD8091E800EB
:100D90008B778093E8002EC0903861F58091E80051
:100DA000877F8093E800809110018093F10080910B
:100DB000E8008E778093E800A7DD1CC091111AC06F
:100DC000909117019230B0F48091E800877F809372
:100DD000E8009093100198DD80911001811104C00A
:100DE0008091E30087FF02C084E001C081E080932E
:100DF0001401F9D98091E80083FF0AC08091E800CE
:100E0000877F8093E8008091EB0080628093EB0005
:100E1000AA960FB6F894DEBF0FBECDBFDF91CF917B
:100E20001F9108950895CF93809114018823A9F00C
:100E30008091E9008F709091EC0090FF02C090E8E3
:100E400001C090E0C92FC82B1092E9008091E80002
:100E500083FD97DECF70C093E900CF910895F89499
:020E6000FFCFC2
:00000001FF
